{
  "contractName": "CryptoPuppies",
  "abi": [
    {
      "constant": true,
      "inputs": [
        {
          "name": "",
          "type": "uint256"
        }
      ],
      "name": "puppies",
      "outputs": [
        {
          "name": "genes",
          "type": "uint256"
        },
        {
          "name": "name",
          "type": "string"
        }
      ],
      "payable": false,
      "stateMutability": "view",
      "type": "function"
    },
    {
      "constant": true,
      "inputs": [
        {
          "name": "",
          "type": "address"
        }
      ],
      "name": "puppyIndexesByOwner",
      "outputs": [
        {
          "name": "",
          "type": "uint256"
        }
      ],
      "payable": false,
      "stateMutability": "view",
      "type": "function"
    },
    {
      "anonymous": false,
      "inputs": [
        {
          "indexed": false,
          "name": "genes",
          "type": "uint256"
        },
        {
          "indexed": false,
          "name": "name",
          "type": "string"
        }
      ],
      "name": "NewPuppy",
      "type": "event"
    },
    {
      "constant": true,
      "inputs": [],
      "name": "getMyPuppyGenes",
      "outputs": [
        {
          "name": "",
          "type": "uint256"
        }
      ],
      "payable": false,
      "stateMutability": "view",
      "type": "function"
    },
    {
      "constant": true,
      "inputs": [],
      "name": "getMyPuppyName",
      "outputs": [
        {
          "name": "",
          "type": "string"
        }
      ],
      "payable": false,
      "stateMutability": "view",
      "type": "function"
    },
    {
      "constant": false,
      "inputs": [
        {
          "name": "_genes",
          "type": "uint256"
        },
        {
          "name": "_name",
          "type": "string"
        }
      ],
      "name": "createPuppy",
      "outputs": [],
      "payable": false,
      "stateMutability": "nonpayable",
      "type": "function"
    },
    {
      "constant": false,
      "inputs": [
        {
          "name": "_recipient",
          "type": "address"
        }
      ],
      "name": "sellMyPuppy",
      "outputs": [
        {
          "name": "",
          "type": "bool"
        }
      ],
      "payable": false,
      "stateMutability": "nonpayable",
      "type": "function"
    }
  ],
  "bytecode": "0x6060604052341561000f57600080fd5b6107e48061001e6000396000f300606060405260043610610078576000357c0100000000000000000000000000000000000000000000000000000000900463ffffffff168063328820191461007d57806336385053146100a65780635e22db7f14610134578063aebf749c14610185578063b61a35d114610245578063d045079d14610292575b600080fd5b341561008857600080fd5b6100906102f8565b6040518082815260200191505060405180910390f35b34156100b157600080fd5b6100b961035e565b6040518080602001828103825283818151815260200191508051906020019080838360005b838110156100f95780820151818401526020810190506100de565b50505050905090810190601f1680156101265780820380516001836020036101000a031916815260200191505b509250505060405180910390f35b341561013f57600080fd5b61016b600480803573ffffffffffffffffffffffffffffffffffffffff16906020019091905050610463565b604051808215151515815260200191505060405180910390f35b341561019057600080fd5b6101a660048080359060200190919050506104a9565b60405180838152602001806020018281038252838181546001816001161561010002031660029004815260200191508054600181600116156101000203166002900480156102355780601f1061020a57610100808354040283529160200191610235565b820191906000526020600020905b81548152906001019060200180831161021857829003601f168201915b5050935050505060405180910390f35b341561025057600080fd5b61027c600480803573ffffffffffffffffffffffffffffffffffffffff169060200190919050506104db565b6040518082815260200191505060405180910390f35b341561029d57600080fd5b6102f6600480803590602001909190803590602001908201803590602001908080601f016020809104026020016040519081016040528093929190818152602001838380828437820191505050505050919050506104f3565b005b600080600260003373ffffffffffffffffffffffffffffffffffffffff1673ffffffffffffffffffffffffffffffffffffffff1681526020019081526020016000205481548110151561034757fe5b906000526020600020906002020160000154905090565b61036661064e565b6000600260003373ffffffffffffffffffffffffffffffffffffffff1673ffffffffffffffffffffffffffffffffffffffff168152602001908152602001600020548154811015156103b457fe5b90600052602060002090600202016001018054600181600116156101000203166002900480601f0160208091040260200160405190810160405280929190818152602001828054600181600116156101000203166002900480156104595780601f1061042e57610100808354040283529160200191610459565b820191906000526020600020905b81548152906001019060200180831161043c57829003601f168201915b5050505050905090565b6000808273ffffffffffffffffffffffffffffffffffffffff166108fc620186a09081150290604051600060405180830381858888f19350505050905080915050919050565b6000818154811015156104b857fe5b906000526020600020906002020160009150905080600001549080600101905082565b60026020528060005260406000206000915090505481565b600060016000805480600101828161050b9190610662565b91600052602060002090600202016000604080519081016040528088815260200187815250909190915060008201518160000155602082015181600101908051906020019061055b929190610694565b50505003905080600260003373ffffffffffffffffffffffffffffffffffffffff1673ffffffffffffffffffffffffffffffffffffffff168152602001908152602001600020819055507f12efae866618158fed3fb6aa7e51975d31550cbe43371a5214a7f0884db338a883836040518083815260200180602001828103825283818151815260200191508051906020019080838360005b8381101561060e5780820151818401526020810190506105f3565b50505050905090810190601f16801561063b5780820380516001836020036101000a031916815260200191505b50935050505060405180910390a1505050565b602060405190810160405280600081525090565b81548183558181151161068f5760020281600202836000526020600020918201910161068e9190610714565b5b505050565b828054600181600116156101000203166002900490600052602060002090601f016020900481019282601f106106d557805160ff1916838001178555610703565b82800160010185558215610703579182015b828111156107025782518255916020019190600101906106e7565b5b509050610710919061074b565b5090565b61074891905b808211156107445760008082016000905560018201600061073b9190610770565b5060020161071a565b5090565b90565b61076d91905b80821115610769576000816000905550600101610751565b5090565b90565b50805460018160011615610100020316600290046000825580601f1061079657506107b5565b601f0160209004906000526020600020908101906107b4919061074b565b5b505600a165627a7a7230582071653f1ede064c442ccdaf1551dfaa8d2d8d972ce24998b5c68270a566fdd0c70029",
  "source": "pragma solidity ^0.4.18;\n\ncontract CryptoPuppies {\n  struct Puppy {\n    uint genes;\n    string name;\n  }\n\n\n  Puppy[] public puppies;\n  bool ended;\n\n  mapping (address => uint) public puppyIndexesByOwner;\n\n  event NewPuppy(uint genes, string name);\n\n  function getMyPuppyGenes() public view returns (uint) {\n    return puppies[puppyIndexesByOwner[msg.sender]].genes;\n  }\n\n  function getMyPuppyName() public view returns (string) {\n    return puppies[puppyIndexesByOwner[msg.sender]].name;\n  }\n\n  function createPuppy(uint _genes, string _name) public {\n    uint index = puppies.push(Puppy(_genes, _name)) - 1;\n    puppyIndexesByOwner[msg.sender] = index;\n    NewPuppy(_genes, _name);\n  }\n\n  function sellMyPuppy(address _recipient) public returns (bool) {\n\n//    require(!ended); // this function has already been called\n//\n//    // 2. Effects\n//    ended = true;\n\n    // 3. Interaction\n    bool dummy = _recipient.send(100000);\n\n    return dummy;\n  }\n}\n",
  "sourcePath": "/Users/takahiro.izumikawa/work/cryptopuppies/contracts/CryptoPuppies.sol",
  "compiler": {
    "name": "solc",
    "version": "0.4.19+commit.c4cbbb05.Emscripten.clang"
  },
  "schemaVersion": "1.0.1",
  "updatedAt": "2018-02-10T02:53:46.565Z"
}