{
  "contractName": "CryptoPuppies",
  "abi": [
    {
      "constant": true,
      "inputs": [],
      "name": "getPuppiesCount",
      "outputs": [
        {
          "name": "",
          "type": "uint256"
        }
      ],
      "payable": false,
      "stateMutability": "view",
      "type": "function"
    },
    {
      "constant": true,
      "inputs": [],
      "name": "getMyPuppyCount",
      "outputs": [
        {
          "name": "",
          "type": "uint256"
        }
      ],
      "payable": false,
      "stateMutability": "view",
      "type": "function"
    },
    {
      "constant": true,
      "inputs": [
        {
          "name": "_index",
          "type": "uint256"
        }
      ],
      "name": "getMyPuppyName",
      "outputs": [
        {
          "name": "",
          "type": "string"
        }
      ],
      "payable": false,
      "stateMutability": "view",
      "type": "function"
    },
    {
      "constant": true,
      "inputs": [
        {
          "name": "",
          "type": "address"
        },
        {
          "name": "",
          "type": "uint256"
        }
      ],
      "name": "puppyIndexesByOwner",
      "outputs": [
        {
          "name": "",
          "type": "int256"
        }
      ],
      "payable": false,
      "stateMutability": "view",
      "type": "function"
    },
    {
      "constant": true,
      "inputs": [],
      "name": "hasAnyPuppy",
      "outputs": [
        {
          "name": "",
          "type": "bool"
        }
      ],
      "payable": false,
      "stateMutability": "view",
      "type": "function"
    },
    {
      "constant": true,
      "inputs": [
        {
          "name": "",
          "type": "uint256"
        }
      ],
      "name": "puppies",
      "outputs": [
        {
          "name": "genes",
          "type": "uint256"
        },
        {
          "name": "name",
          "type": "string"
        }
      ],
      "payable": false,
      "stateMutability": "view",
      "type": "function"
    },
    {
      "constant": false,
      "inputs": [
        {
          "name": "_recipient",
          "type": "address"
        },
        {
          "name": "_amount",
          "type": "uint256"
        }
      ],
      "name": "payEther",
      "outputs": [],
      "payable": true,
      "stateMutability": "payable",
      "type": "function"
    },
    {
      "constant": false,
      "inputs": [
        {
          "name": "_from",
          "type": "address"
        },
        {
          "name": "_index",
          "type": "uint256"
        },
        {
          "name": "_price",
          "type": "uint256"
        }
      ],
      "name": "buyPuppy",
      "outputs": [],
      "payable": true,
      "stateMutability": "payable",
      "type": "function"
    },
    {
      "constant": true,
      "inputs": [
        {
          "name": "_index",
          "type": "uint256"
        }
      ],
      "name": "getMyPuppyGenes",
      "outputs": [
        {
          "name": "",
          "type": "uint256"
        }
      ],
      "payable": false,
      "stateMutability": "view",
      "type": "function"
    },
    {
      "constant": false,
      "inputs": [
        {
          "name": "_genes",
          "type": "uint256"
        },
        {
          "name": "_name",
          "type": "string"
        }
      ],
      "name": "createPuppy",
      "outputs": [],
      "payable": false,
      "stateMutability": "nonpayable",
      "type": "function"
    },
    {
      "constant": true,
      "inputs": [
        {
          "name": "_index",
          "type": "uint256"
        }
      ],
      "name": "getPuppy",
      "outputs": [
        {
          "name": "",
          "type": "string"
        }
      ],
      "payable": false,
      "stateMutability": "view",
      "type": "function"
    },
    {
      "inputs": [],
      "payable": false,
      "stateMutability": "nonpayable",
      "type": "constructor"
    },
    {
      "anonymous": false,
      "inputs": [
        {
          "indexed": false,
          "name": "genes",
          "type": "uint256"
        },
        {
          "indexed": false,
          "name": "name",
          "type": "string"
        }
      ],
      "name": "NewPuppy",
      "type": "event"
    }
  ],
  "bytecode": "0x606060405234156200001057600080fd5b60008054806001018281620000269190620000b8565b916000526020600020906002020160006040805190810160405280600081526020016040805190810160405280600d81526020017f47656e6572616c205075707079000000000000000000000000000000000000008152508152509091909150600082015181600001556020820151816001019080519060200190620000ae929190620000ed565b5050505062000224565b815481835581811511620000e857600202816002028360005260206000209182019101620000e7919062000174565b5b505050565b828054600181600116156101000203166002900490600052602060002090601f016020900481019282601f106200013057805160ff191683800117855562000161565b8280016001018555821562000161579182015b828111156200016057825182559160200191906001019062000143565b5b509050620001709190620001b0565b5090565b620001ad91905b80821115620001a9576000808201600090556001820160006200019f9190620001d8565b506002016200017b565b5090565b90565b620001d591905b80821115620001d1576000816000905550600101620001b7565b5090565b90565b50805460018160011615610100020316600290046000825580601f1062000200575062000221565b601f016020900490600052602060002090810190620002209190620001b0565b5b50565b610ee980620002346000396000f3006060604052600436106100af576000357c0100000000000000000000000000000000000000000000000000000000900463ffffffff1680630b3dc903146100b4578063453070f9146100dd5780636e63e63e1461010657806379fcabaa146101a257806397054d9f146101f8578063aebf749c14610225578063b8326753146102e5578063c09e10041461031c578063cacd57a51461035c578063d045079d14610393578063f36c83f0146103f9575b600080fd5b34156100bf57600080fd5b6100c7610495565b6040518082815260200191505060405180910390f35b34156100e857600080fd5b6100f06104a1565b6040518082815260200191505060405180910390f35b341561011157600080fd5b610127600480803590602001909190505061053b565b6040518080602001828103825283818151815260200191508051906020019080838360005b8381101561016757808201518184015260208101905061014c565b50505050905090810190601f1680156101945780820380516001836020036101000a031916815260200191505b509250505060405180910390f35b34156101ad57600080fd5b6101e2600480803573ffffffffffffffffffffffffffffffffffffffff169060200190919080359060200190919050506106ab565b6040518082815260200191505060405180910390f35b341561020357600080fd5b61020b6106dc565b604051808215151515815260200191505060405180910390f35b341561023057600080fd5b61024660048080359060200190919050506107d0565b60405180838152602001806020018281038252838181546001816001161561010002031660029004815260200191508054600181600116156101000203166002900480156102d55780601f106102aa576101008083540402835291602001916102d5565b820191906000526020600020905b8154815290600101906020018083116102b857829003601f168201915b5050935050505060405180910390f35b61031a600480803573ffffffffffffffffffffffffffffffffffffffff16906020019091908035906020019091905050610802565b005b61035a600480803573ffffffffffffffffffffffffffffffffffffffff16906020019091908035906020019091908035906020019091905050610846565b005b341561036757600080fd5b61037d60048080359060200190919050506109c0565b6040518082815260200191505060405180910390f35b341561039e57600080fd5b6103f7600480803590602001909190803590602001908201803590602001908080601f01602080910402602001604051908101604052809392919081815260200183838082843782019150505050505091905050610a91565b005b341561040457600080fd5b61041a6004808035906020019091905050610c0e565b6040518080602001828103825283818151815260200191508051906020019080838360005b8381101561045a57808201518184015260208101905061043f565b50505050905090810190601f1680156104875780820380516001836020036101000a031916815260200191505b509250505060405180910390f35b60008080549050905090565b600080600160003373ffffffffffffffffffffffffffffffffffffffff1673ffffffffffffffffffffffffffffffffffffffff168152602001908152602001600020805490501115156104f357600080fd5b600160003373ffffffffffffffffffffffffffffffffffffffff1673ffffffffffffffffffffffffffffffffffffffff16815260200190815260200160002080549050905090565b610543610cd6565b6000600160003373ffffffffffffffffffffffffffffffffffffffff1673ffffffffffffffffffffffffffffffffffffffff1681526020019081526020016000208054905011151561059457600080fd5b6000600160003373ffffffffffffffffffffffffffffffffffffffff1673ffffffffffffffffffffffffffffffffffffffff168152602001908152602001600020838154811015156105e257fe5b9060005260206000209001548154811015156105fa57fe5b90600052602060002090600202016001018054600181600116156101000203166002900480601f01602080910402602001604051908101604052809291908181526020018280546001816001161561010002031660029004801561069f5780601f106106745761010080835404028352916020019161069f565b820191906000526020600020905b81548152906001019060200180831161068257829003601f168201915b50505050509050919050565b6001602052816000526040600020818154811015156106c657fe5b9060005260206000209001600091509150505481565b6000806000808054905014156106f557600091506107cc565b600160003373ffffffffffffffffffffffffffffffffffffffff1673ffffffffffffffffffffffffffffffffffffffff16815260200190815260200160002080549050905060008111151561074d57600091506107cc565b600080600160003373ffffffffffffffffffffffffffffffffffffffff1673ffffffffffffffffffffffffffffffffffffffff168152602001908152602001600020600081548110151561079d57fe5b9060005260206000209001548154811015156107b557fe5b906000526020600020906002020160000154141591505b5090565b6000818154811015156107df57fe5b906000526020600020906002020160009150905080600001549080600101905082565b8173ffffffffffffffffffffffffffffffffffffffff166108fc829081150290604051600060405180830381858888f19350505050151561084257600080fd5b5050565b6108508382610802565b600160003373ffffffffffffffffffffffffffffffffffffffff1673ffffffffffffffffffffffffffffffffffffffff16815260200190815260200160002080548060010182816108a19190610cea565b91600052602060002090016000600160008773ffffffffffffffffffffffffffffffffffffffff1673ffffffffffffffffffffffffffffffffffffffff168152602001908152602001600020858154811015156108fa57fe5b90600052602060002090015490919091505550600160008473ffffffffffffffffffffffffffffffffffffffff1673ffffffffffffffffffffffffffffffffffffffff1681526020019081526020016000208281548110151561095957fe5b906000526020600020900160009055600160008473ffffffffffffffffffffffffffffffffffffffff1673ffffffffffffffffffffffffffffffffffffffff1681526020019081526020016000208054809190600190036109ba9190610d16565b50505050565b600080600160003373ffffffffffffffffffffffffffffffffffffffff1673ffffffffffffffffffffffffffffffffffffffff16815260200190815260200160002080549050111515610a1257600080fd5b6000600160003373ffffffffffffffffffffffffffffffffffffffff1673ffffffffffffffffffffffffffffffffffffffff16815260200190815260200160002083815481101515610a6057fe5b906000526020600020900154815481101515610a7857fe5b9060005260206000209060020201600001549050919050565b6000600160008054806001018281610aa99190610d42565b916000526020600020906002020160006040805190810160405280888152602001878152509091909150600082015181600001556020820151816001019080519060200190610af9929190610d74565b505050039050600160003373ffffffffffffffffffffffffffffffffffffffff1673ffffffffffffffffffffffffffffffffffffffff1681526020019081526020016000208054806001018281610b509190610cea565b9160005260206000209001600083909190915055507f12efae866618158fed3fb6aa7e51975d31550cbe43371a5214a7f0884db338a883836040518083815260200180602001828103825283818151815260200191508051906020019080838360005b83811015610bce578082015181840152602081019050610bb3565b50505050905090810190601f168015610bfb5780820380516001836020036101000a031916815260200191505b50935050505060405180910390a1505050565b610c16610cd6565b600082815481101515610c2557fe5b90600052602060002090600202016001018054600181600116156101000203166002900480601f016020809104026020016040519081016040528092919081815260200182805460018160011615610100020316600290048015610cca5780601f10610c9f57610100808354040283529160200191610cca565b820191906000526020600020905b815481529060010190602001808311610cad57829003601f168201915b50505050509050919050565b602060405190810160405280600081525090565b815481835581811511610d1157818360005260206000209182019101610d109190610df4565b5b505050565b815481835581811511610d3d57818360005260206000209182019101610d3c9190610df4565b5b505050565b815481835581811511610d6f57600202816002028360005260206000209182019101610d6e9190610e19565b5b505050565b828054600181600116156101000203166002900490600052602060002090601f016020900481019282601f10610db557805160ff1916838001178555610de3565b82800160010185558215610de3579182015b82811115610de2578251825591602001919060010190610dc7565b5b509050610df09190610e50565b5090565b610e1691905b80821115610e12576000816000905550600101610dfa565b5090565b90565b610e4d91905b80821115610e4957600080820160009055600182016000610e409190610e75565b50600201610e1f565b5090565b90565b610e7291905b80821115610e6e576000816000905550600101610e56565b5090565b90565b50805460018160011615610100020316600290046000825580601f10610e9b5750610eba565b601f016020900490600052602060002090810190610eb99190610e50565b5b505600a165627a7a723058201b44c439556d46ef2e9cd1254e51d20c46726803a3ab71d7b5be66992fcbeba10029",
  "source": "pragma solidity ^0.4.18;\n\ncontract CryptoPuppies {\n    struct Puppy {\n        uint genes;\n        string name;\n    }\n\n    Puppy[] public puppies;\n\n    mapping(address => int[]) public puppyIndexesByOwner;\n\n    event NewPuppy(uint genes, string name);\n\n    modifier onlyPuppyOwner() {\n        require(puppyIndexesByOwner[msg.sender].length > 0);\n        _;\n    }\n\n    function CryptoPuppies() public {\n        puppies.push(Puppy(0, 'General Puppy'));\n    }\n\n    function hasAnyPuppy() public view returns (bool) {\n        if (puppies.length == 0) {\n            return false;\n        }\n\n        uint puppyCount = puppyIndexesByOwner[msg.sender].length;\n        if (puppyCount <= 0) {\n            return false;\n        }\n\n        return puppies[uint(puppyIndexesByOwner[msg.sender][0])].genes != 0;\n    }\n\n    function getMyPuppyCount() public view onlyPuppyOwner returns (uint) {\n        return puppyIndexesByOwner[msg.sender].length;\n    }\n\n    function getMyPuppyGenes(uint _index) public view onlyPuppyOwner returns (uint) {\n        return puppies[uint(puppyIndexesByOwner[msg.sender][_index])].genes;\n    }\n\n    function getMyPuppyName(uint _index) public view onlyPuppyOwner returns (string) {\n        return puppies[uint(puppyIndexesByOwner[msg.sender][_index])].name;\n    }\n\n    function getPuppiesCount() public view returns (uint) {\n        return puppies.length;\n    }\n\n    function getPuppy(uint _index) public view returns (string) {\n        return puppies[_index].name;\n    }\n\n    function createPuppy(uint _genes, string _name) public {\n        int index = int(puppies.push(Puppy(_genes, _name)) - 1);\n        puppyIndexesByOwner[msg.sender].push(index);\n        NewPuppy(_genes, _name);\n    }\n\n    function buyPuppy(address _from, uint _index, uint _price) public payable {\n        payEther(_from, _price);\n        puppyIndexesByOwner[msg.sender].push(puppyIndexesByOwner[_from][_index]);\n        delete(puppyIndexesByOwner[_from][_index]);\n        puppyIndexesByOwner[_from].length--;\n    }\n\n    function payEther(address _recipient, uint _amount) public payable {\n        _recipient.transfer(_amount);\n    }\n}\n",
  "sourcePath": "/Users/yuka.sato/Workspace/repositories/cryptopuppies/contracts/CryptoPuppies.sol",
  "compiler": {
    "name": "solc",
    "version": "0.4.18+commit.9cf6e910.Emscripten.clang"
  },
  "schemaVersion": "1.0.1",
  "updatedAt": "2018-03-10T07:03:56.209Z"
}