{
  "contractName": "CryptoPuppies",
  "abi": [
    {
      "constant": true,
      "inputs": [],
      "name": "getMyPuppyGenes",
      "outputs": [
        {
          "name": "",
          "type": "uint256"
        }
      ],
      "payable": false,
      "stateMutability": "view",
      "type": "function"
    },
    {
      "constant": true,
      "inputs": [],
      "name": "getMyPuppyName",
      "outputs": [
        {
          "name": "",
          "type": "string"
        }
      ],
      "payable": false,
      "stateMutability": "view",
      "type": "function"
    },
    {
      "constant": true,
      "inputs": [],
      "name": "hasAnyPuppy",
      "outputs": [
        {
          "name": "",
          "type": "bool"
        }
      ],
      "payable": false,
      "stateMutability": "view",
      "type": "function"
    },
    {
      "constant": true,
      "inputs": [
        {
          "name": "",
          "type": "uint256"
        }
      ],
      "name": "puppies",
      "outputs": [
        {
          "name": "genes",
          "type": "uint256"
        },
        {
          "name": "name",
          "type": "string"
        }
      ],
      "payable": false,
      "stateMutability": "view",
      "type": "function"
    },
    {
      "constant": true,
      "inputs": [
        {
          "name": "",
          "type": "address"
        }
      ],
      "name": "puppyIndexesByOwner",
      "outputs": [
        {
          "name": "",
          "type": "int256"
        }
      ],
      "payable": false,
      "stateMutability": "view",
      "type": "function"
    },
    {
      "constant": false,
      "inputs": [
        {
          "name": "_recipient",
          "type": "address"
        },
        {
          "name": "_amount",
          "type": "uint256"
        }
      ],
      "name": "payEther",
      "outputs": [],
      "payable": true,
      "stateMutability": "payable",
      "type": "function"
    },
    {
      "constant": false,
      "inputs": [
        {
          "name": "_from",
          "type": "address"
        },
        {
          "name": "_price",
          "type": "uint256"
        }
      ],
      "name": "buyPuppy",
      "outputs": [],
      "payable": true,
      "stateMutability": "payable",
      "type": "function"
    },
    {
      "anonymous": false,
      "inputs": [
        {
          "indexed": false,
          "name": "_genes",
          "type": "uint256"
        },
        {
          "indexed": false,
          "name": "_name",
          "type": "string"
        }
      ],
      "name": "createPuppy",
      "type": "function",
      "constant": false,
      "outputs": [],
      "payable": false,
      "stateMutability": "nonpayable"
    },
    {
      "inputs": [],
      "payable": false,
      "stateMutability": "nonpayable",
      "type": "constructor"
    },
    {
      "anonymous": false,
      "inputs": [
        {
          "indexed": false,
          "name": "genes",
          "type": "uint256"
        },
        {
          "indexed": false,
          "name": "name",
          "type": "string"
        }
      ],
      "name": "NewPuppy",
      "type": "event"
    }
  ],
  "bytecode": "0x606060405234156200001057600080fd5b60008054806001018281620000269190620000b8565b916000526020600020906002020160006040805190810160405280600081526020016040805190810160405280600d81526020017f47656e6572616c205075707079000000000000000000000000000000000000008152508152509091909150600082015181600001556020820151816001019080519060200190620000ae929190620000ed565b5050505062000224565b815481835581811511620000e857600202816002028360005260206000209182019101620000e7919062000174565b5b505050565b828054600181600116156101000203166002900490600052602060002090601f016020900481019282601f106200013057805160ff191683800117855562000161565b8280016001018555821562000161579182015b828111156200016057825182559160200191906001019062000143565b5b509050620001709190620001b0565b5090565b620001ad91905b80821115620001a9576000808201600090556001820160006200019f9190620001d8565b506002016200017b565b5090565b90565b620001d591905b80821115620001d1576000816000905550600101620001b7565b5090565b90565b50805460018160011615610100020316600290046000825580601f1062000200575062000221565b601f016020900490600052602060002090810190620002209190620001b0565b5b50565b610a6c80620002346000396000f30060606040526004361061008e576000357c0100000000000000000000000000000000000000000000000000000000900463ffffffff168063328820191461009357806336385053146100bc57806397054d9f1461014a578063aebf749c14610177578063b61a35d114610237578063b832675314610284578063c212cfff146102bb578063d045079d146102f2575b600080fd5b341561009e57600080fd5b6100a6610358565b6040518082815260200191505060405180910390f35b34156100c757600080fd5b6100cf61040c565b6040518080602001828103825283818151815260200191508051906020019080838360005b8381101561010f5780820151818401526020810190506100f4565b50505050905090810190601f16801561013c5780820380516001836020036101000a031916815260200191505b509250505060405180910390f35b341561015557600080fd5b61015d61055f565b604051808215151515815260200191505060405180910390f35b341561018257600080fd5b61019860048080359060200190919050506105f8565b60405180838152602001806020018281038252838181546001816001161561010002031660029004815260200191508054600181600116156101000203166002900480156102275780601f106101fc57610100808354040283529160200191610227565b820191906000526020600020905b81548152906001019060200180831161020a57829003601f168201915b5050935050505060405180910390f35b341561024257600080fd5b61026e600480803573ffffffffffffffffffffffffffffffffffffffff1690602001909190505061062a565b6040518082815260200191505060405180910390f35b6102b9600480803573ffffffffffffffffffffffffffffffffffffffff16906020019091908035906020019091905050610642565b005b6102f0600480803573ffffffffffffffffffffffffffffffffffffffff16906020019091908035906020019091905050610686565b005b34156102fd57600080fd5b610356600480803590602001909190803590602001908201803590602001908080601f0160208091040260200160405190810160405280939291908181526020018383808284378201915050505050509190505061077b565b005b600080600160003373ffffffffffffffffffffffffffffffffffffffff1673ffffffffffffffffffffffffffffffffffffffff168152602001908152602001600020541315156103a757600080fd5b6000600160003373ffffffffffffffffffffffffffffffffffffffff1673ffffffffffffffffffffffffffffffffffffffff168152602001908152602001600020548154811015156103f557fe5b906000526020600020906002020160000154905090565b6104146108d6565b6000600160003373ffffffffffffffffffffffffffffffffffffffff1673ffffffffffffffffffffffffffffffffffffffff1681526020019081526020016000205413151561046257600080fd5b6000600160003373ffffffffffffffffffffffffffffffffffffffff1673ffffffffffffffffffffffffffffffffffffffff168152602001908152602001600020548154811015156104b057fe5b90600052602060002090600202016001018054600181600116156101000203166002900480601f0160208091040260200160405190810160405280929190818152602001828054600181600116156101000203166002900480156105555780601f1061052a57610100808354040283529160200191610555565b820191906000526020600020905b81548152906001019060200180831161053857829003601f168201915b5050505050905090565b60008060008080549050141561057857600091506105f4565b600160003373ffffffffffffffffffffffffffffffffffffffff1673ffffffffffffffffffffffffffffffffffffffff1681526020019081526020016000205490506000811315156105cd57600091506105f4565b600080828154811015156105dd57fe5b906000526020600020906002020160000154141591505b5090565b60008181548110151561060757fe5b906000526020600020906002020160009150905080600001549080600101905082565b60016020528060005260406000206000915090505481565b8173ffffffffffffffffffffffffffffffffffffffff166108fc829081150290604051600060405180830381858888f19350505050151561068257600080fd5b5050565b6106908282610642565b600160008373ffffffffffffffffffffffffffffffffffffffff1673ffffffffffffffffffffffffffffffffffffffff16815260200190815260200160002054600160003373ffffffffffffffffffffffffffffffffffffffff1673ffffffffffffffffffffffffffffffffffffffff168152602001908152602001600020819055507fffffffffffffffffffffffffffffffffffffffffffffffffffffffffffffffff600160008473ffffffffffffffffffffffffffffffffffffffff1673ffffffffffffffffffffffffffffffffffffffff168152602001908152602001600020819055505050565b600060016000805480600101828161079391906108ea565b9160005260206000209060020201600060408051908101604052808881526020018781525090919091506000820151816000015560208201518160010190805190602001906107e392919061091c565b50505003905080600160003373ffffffffffffffffffffffffffffffffffffffff1673ffffffffffffffffffffffffffffffffffffffff168152602001908152602001600020819055507f12efae866618158fed3fb6aa7e51975d31550cbe43371a5214a7f0884db338a883836040518083815260200180602001828103825283818151815260200191508051906020019080838360005b8381101561089657808201518184015260208101905061087b565b50505050905090810190601f1680156108c35780820380516001836020036101000a031916815260200191505b50935050505060405180910390a1505050565b602060405190810160405280600081525090565b81548183558181151161091757600202816002028360005260206000209182019101610916919061099c565b5b505050565b828054600181600116156101000203166002900490600052602060002090601f016020900481019282601f1061095d57805160ff191683800117855561098b565b8280016001018555821561098b579182015b8281111561098a57825182559160200191906001019061096f565b5b50905061099891906109d3565b5090565b6109d091905b808211156109cc576000808201600090556001820160006109c391906109f8565b506002016109a2565b5090565b90565b6109f591905b808211156109f15760008160009055506001016109d9565b5090565b90565b50805460018160011615610100020316600290046000825580601f10610a1e5750610a3d565b601f016020900490600052602060002090810190610a3c91906109d3565b5b505600a165627a7a723058200e0287f234db0c07895908c4db71f61ac1b41ffcab21bf23f8ad9ae84ba0fc4e0029",
  "source": "pragma solidity ^0.4.18;\n\ncontract CryptoPuppies {\n    struct Puppy {\n        uint genes;\n        string name;\n    }\n\n    Puppy[] public puppies;\n\n    mapping(address => int) public puppyIndexesByOwner;\n\n    event NewPuppy(uint genes, string name);\n\n    modifier onlyPuppyOwner() {\n        require(puppyIndexesByOwner[msg.sender] > 0);\n        _;\n    }\n\n    function CryptoPuppies() public {\n        puppies.push(Puppy(0, 'General Puppy'));\n    }\n\n    function hasAnyPuppy() public view returns (bool) {\n        if (puppies.length == 0) {\n            return false;\n        }\n\n        int index = puppyIndexesByOwner[msg.sender];\n        if (index <= 0) {\n            return false;\n        }\n\n        return puppies[uint(index)].genes != 0;\n    }\n\n    function getMyPuppyGenes() public view onlyPuppyOwner returns (uint) {\n        return puppies[uint(puppyIndexesByOwner[msg.sender])].genes;\n    }\n\n    function getMyPuppyName() public view onlyPuppyOwner returns (string) {\n        return puppies[uint(puppyIndexesByOwner[msg.sender])].name;\n    }\n\n    function createPuppy(uint _genes, string _name) public {\n        int index = int(puppies.push(Puppy(_genes, _name)) - 1);\n        puppyIndexesByOwner[msg.sender] = index;\n        NewPuppy(_genes, _name);\n    }\n\n    function buyPuppy(address _from, uint _price) public payable {\n        payEther(_from, _price);\n        puppyIndexesByOwner[msg.sender] = puppyIndexesByOwner[_from];\n        puppyIndexesByOwner[_from] = -1;\n    }\n\n    function payEther(address _recipient, uint _amount) public payable {\n        _recipient.transfer(_amount);\n    }\n}\n",
  "sourcePath": "/Users/yuka.sato/Workspace/repositories/cryptopuppies/contracts/CryptoPuppies.sol",
  "compiler": {
    "name": "solc",
    "version": "0.4.18+commit.9cf6e910.Emscripten.clang"
  },
  "schemaVersion": "1.0.1",
  "updatedAt": "2018-03-10T02:56:46.879Z"
}