{
  "contractName": "CryptoPuppies",
  "abi": [
    {
      "constant": true,
      "inputs": [
        {
          "name": "",
          "type": "uint256"
        }
      ],
      "name": "puppies",
      "outputs": [
        {
          "name": "genes",
          "type": "uint256"
        },
        {
          "name": "name",
          "type": "string"
        }
      ],
      "payable": false,
      "stateMutability": "view",
      "type": "function"
    },
    {
      "constant": true,
      "inputs": [],
      "name": "getFirstPuppyName",
      "outputs": [
        {
          "name": "",
          "type": "string"
        }
      ],
      "payable": false,
      "stateMutability": "view",
      "type": "function"
    },
    {
      "constant": false,
      "inputs": [
        {
          "name": "_genes",
          "type": "uint256"
        },
        {
          "name": "_name",
          "type": "string"
        }
      ],
      "name": "createPuppies",
      "outputs": [],
      "payable": false,
      "stateMutability": "nonpayable",
      "type": "function"
    }
  ],
  "bytecode": "0x6060604052341561000f57600080fd5b61050a8061001e6000396000f300606060405260043610610057576000357c0100000000000000000000000000000000000000000000000000000000900463ffffffff168063aebf749c1461005c578063b139ec1f1461011c578063c6e3cdf9146101aa575b600080fd5b341561006757600080fd5b61007d6004808035906020019091905050610210565b604051808381526020018060200182810382528381815460018160011615610100020316600290048152602001915080546001816001161561010002031660029004801561010c5780601f106100e15761010080835404028352916020019161010c565b820191906000526020600020905b8154815290600101906020018083116100ef57829003601f168201915b5050935050505060405180910390f35b341561012757600080fd5b61012f610242565b6040518080602001828103825283818151815260200191508051906020019080838360005b8381101561016f578082015181840152602081019050610154565b50505050905090810190601f16801561019c5780820380516001836020036101000a031916815260200191505b509250505060405180910390f35b34156101b557600080fd5b61020e600480803590602001909190803590602001908201803590602001908080601f01602080910402602001604051908101604052809392919081815260200183838082843782019150505050505091905050610308565b005b60008181548110151561021f57fe5b906000526020600020906002020160009150905080600001549080600101905082565b61024a610374565b60008081548110151561025957fe5b90600052602060002090600202016001018054600181600116156101000203166002900480601f0160208091040260200160405190810160405280929190818152602001828054600181600116156101000203166002900480156102fe5780601f106102d3576101008083540402835291602001916102fe565b820191906000526020600020905b8154815290600101906020018083116102e157829003601f168201915b5050505050905090565b6000805480600101828161031c9190610388565b91600052602060002090600202016000604080519081016040528086815260200185815250909190915060008201518160000155602082015181600101908051906020019061036c9291906103ba565b505050505050565b602060405190810160405280600081525090565b8154818355818115116103b5576002028160020283600052602060002091820191016103b4919061043a565b5b505050565b828054600181600116156101000203166002900490600052602060002090601f016020900481019282601f106103fb57805160ff1916838001178555610429565b82800160010185558215610429579182015b8281111561042857825182559160200191906001019061040d565b5b5090506104369190610471565b5090565b61046e91905b8082111561046a576000808201600090556001820160006104619190610496565b50600201610440565b5090565b90565b61049391905b8082111561048f576000816000905550600101610477565b5090565b90565b50805460018160011615610100020316600290046000825580601f106104bc57506104db565b601f0160209004906000526020600020908101906104da9190610471565b5b505600a165627a7a7230582090fe98f3af1a9f6c26f6527c75d9580820f7cb2b12e2ab0732b94d1a713938350029",
  "source": "pragma solidity ^0.4.18;\n\ncontract CryptoPuppies {\n  struct Puppy {\n    uint genes;\n    string name;\n  }\n\n  Puppy[] public puppies;\n\n  function getFirstPuppyName() public view returns (string) {\n    return puppies[0].name;\n  }\n\n  function createPuppies(uint _genes, string _name) public {\n    puppies.push(Puppy(_genes, _name));\n  }\n}\n",
  "sourcePath": "/Users/yuka.sato/Workspace/repositories/cryptopuppies/contracts/CryptoPuppies.sol",
  "compiler": {
    "name": "solc",
    "version": "0.4.18+commit.9cf6e910.Emscripten.clang"
  },
  "schemaVersion": "1.0.1",
  "updatedAt": "2018-01-27T03:01:09.180Z"
}