{
  "contractName": "CryptoPuppies",
  "abi": [
    {
      "constant": true,
      "inputs": [],
      "name": "getMyPuppyName",
      "outputs": [
        {
          "name": "",
          "type": "string"
        }
      ],
      "payable": false,
      "stateMutability": "view",
      "type": "function"
    },
    {
      "constant": true,
      "inputs": [
        {
          "name": "",
          "type": "uint256"
        }
      ],
      "name": "puppies",
      "outputs": [
        {
          "name": "genes",
          "type": "uint256"
        },
        {
          "name": "name",
          "type": "string"
        }
      ],
      "payable": false,
      "stateMutability": "view",
      "type": "function"
    },
    {
      "constant": true,
      "inputs": [
        {
          "name": "",
          "type": "address"
        }
      ],
      "name": "puppyIndexesByOwner",
      "outputs": [
        {
          "name": "",
          "type": "uint256"
        }
      ],
      "payable": false,
      "stateMutability": "view",
      "type": "function"
    },
    {
      "constant": false,
      "inputs": [
        {
          "name": "_genes",
          "type": "uint256"
        },
        {
          "name": "_name",
          "type": "string"
        }
      ],
      "name": "createPuppy",
      "outputs": [],
      "payable": false,
      "stateMutability": "nonpayable",
      "type": "function"
    },
    {
      "anonymous": false,
      "inputs": [
        {
          "indexed": false,
          "name": "genes",
          "type": "uint256"
        },
        {
          "indexed": false,
          "name": "name",
          "type": "string"
        }
      ],
      "name": "NewPuppy",
      "type": "event"
    }
  ],
  "bytecode": "0x6060604052341561000f57600080fd5b6106a88061001e6000396000f300606060405260043610610062576000357c0100000000000000000000000000000000000000000000000000000000900463ffffffff1680633638505314610067578063aebf749c146100f5578063b61a35d1146101b5578063d045079d14610202575b600080fd5b341561007257600080fd5b61007a610268565b6040518080602001828103825283818151815260200191508051906020019080838360005b838110156100ba57808201518184015260208101905061009f565b50505050905090810190601f1680156100e75780820380516001836020036101000a031916815260200191505b509250505060405180910390f35b341561010057600080fd5b610116600480803590602001909190505061036d565b60405180838152602001806020018281038252838181546001816001161561010002031660029004815260200191508054600181600116156101000203166002900480156101a55780601f1061017a576101008083540402835291602001916101a5565b820191906000526020600020905b81548152906001019060200180831161018857829003601f168201915b5050935050505060405180910390f35b34156101c057600080fd5b6101ec600480803573ffffffffffffffffffffffffffffffffffffffff1690602001909190505061039f565b6040518082815260200191505060405180910390f35b341561020d57600080fd5b610266600480803590602001909190803590602001908201803590602001908080601f016020809104026020016040519081016040528093929190818152602001838380828437820191505050505050919050506103b7565b005b610270610512565b6000600160003373ffffffffffffffffffffffffffffffffffffffff1673ffffffffffffffffffffffffffffffffffffffff168152602001908152602001600020548154811015156102be57fe5b90600052602060002090600202016001018054600181600116156101000203166002900480601f0160208091040260200160405190810160405280929190818152602001828054600181600116156101000203166002900480156103635780601f1061033857610100808354040283529160200191610363565b820191906000526020600020905b81548152906001019060200180831161034657829003601f168201915b5050505050905090565b60008181548110151561037c57fe5b906000526020600020906002020160009150905080600001549080600101905082565b60016020528060005260406000206000915090505481565b60006001600080548060010182816103cf9190610526565b91600052602060002090600202016000604080519081016040528088815260200187815250909190915060008201518160000155602082015181600101908051906020019061041f929190610558565b50505003905080600160003373ffffffffffffffffffffffffffffffffffffffff1673ffffffffffffffffffffffffffffffffffffffff168152602001908152602001600020819055507f12efae866618158fed3fb6aa7e51975d31550cbe43371a5214a7f0884db338a883836040518083815260200180602001828103825283818151815260200191508051906020019080838360005b838110156104d25780820151818401526020810190506104b7565b50505050905090810190601f1680156104ff5780820380516001836020036101000a031916815260200191505b50935050505060405180910390a1505050565b602060405190810160405280600081525090565b8154818355818115116105535760020281600202836000526020600020918201910161055291906105d8565b5b505050565b828054600181600116156101000203166002900490600052602060002090601f016020900481019282601f1061059957805160ff19168380011785556105c7565b828001600101855582156105c7579182015b828111156105c65782518255916020019190600101906105ab565b5b5090506105d4919061060f565b5090565b61060c91905b80821115610608576000808201600090556001820160006105ff9190610634565b506002016105de565b5090565b90565b61063191905b8082111561062d576000816000905550600101610615565b5090565b90565b50805460018160011615610100020316600290046000825580601f1061065a5750610679565b601f016020900490600052602060002090810190610678919061060f565b5b505600a165627a7a72305820c9fae11b3b7a59a4959bf11243aee8bd6205b11c1aa890b8e67943476d9761880029",
  "source": "pragma solidity ^0.4.18;\n\ncontract CryptoPuppies {\n  struct Puppy {\n    uint genes;\n    string name;\n  }\n\n  Puppy[] public puppies;\n\n  mapping (address => uint) public puppyIndexesByOwner;\n\n  event NewPuppy(uint genes, string name);\n\n  function getMyPuppyName() public view returns (string) {\n    return puppies[puppyIndexesByOwner[msg.sender]].name;\n  }\n\n  function createPuppy(uint _genes, string _name) public {\n    uint index = puppies.push(Puppy(_genes, _name)) - 1;\n    puppyIndexesByOwner[msg.sender] = index;\n    NewPuppy(_genes, _name);\n  }\n}\n",
  "sourcePath": "/Users/yuka.sato/Workspace/repositories/cryptopuppies/contracts/CryptoPuppies.sol",
  "compiler": {
    "name": "solc",
    "version": "0.4.18+commit.9cf6e910.Emscripten.clang"
  },
  "schemaVersion": "1.0.1",
  "updatedAt": "2018-01-28T05:07:25.907Z"
}