{
  "contractName": "CryptoPuppies",
  "abi": [
    {
      "constant": true,
      "inputs": [],
      "name": "getPuppiesCount",
      "outputs": [
        {
          "name": "",
          "type": "uint256"
        }
      ],
      "payable": false,
      "stateMutability": "view",
      "type": "function"
    },
    {
      "constant": true,
      "inputs": [],
      "name": "getMyPuppyGenes",
      "outputs": [
        {
          "name": "",
          "type": "uint256"
        }
      ],
      "payable": false,
      "stateMutability": "view",
      "type": "function"
    },
    {
      "constant": true,
      "inputs": [],
      "name": "getMyPuppyName",
      "outputs": [
        {
          "name": "",
          "type": "string"
        }
      ],
      "payable": false,
      "stateMutability": "view",
      "type": "function"
    },
    {
      "constant": true,
      "inputs": [
        {
          "name": "",
          "type": "address"
        },
        {
          "name": "",
          "type": "uint256"
        }
      ],
      "name": "puppyIndexesByOwner",
      "outputs": [
        {
          "name": "",
          "type": "int256"
        }
      ],
      "payable": false,
      "stateMutability": "view",
      "type": "function"
    },
    {
      "constant": true,
      "inputs": [],
      "name": "hasAnyPuppy",
      "outputs": [
        {
          "name": "",
          "type": "bool"
        }
      ],
      "payable": false,
      "stateMutability": "view",
      "type": "function"
    },
    {
      "constant": true,
      "inputs": [
        {
          "name": "",
          "type": "uint256"
        }
      ],
      "name": "puppies",
      "outputs": [
        {
          "name": "genes",
          "type": "uint256"
        },
        {
          "name": "name",
          "type": "string"
        }
      ],
      "payable": false,
      "stateMutability": "view",
      "type": "function"
    },
    {
      "constant": false,
      "inputs": [
        {
          "name": "_recipient",
          "type": "address"
        },
        {
          "name": "_amount",
          "type": "uint256"
        }
      ],
      "name": "payEther",
      "outputs": [],
      "payable": true,
      "stateMutability": "payable",
      "type": "function"
    },
    {
      "constant": false,
      "inputs": [
        {
          "name": "_from",
          "type": "address"
        },
        {
          "name": "_index",
          "type": "uint256"
        },
        {
          "name": "_price",
          "type": "uint256"
        }
      ],
      "name": "buyPuppy",
      "outputs": [],
      "payable": true,
      "stateMutability": "payable",
      "type": "function"
    },
    {
      "constant": false,
      "inputs": [
        {
          "name": "_genes",
          "type": "uint256"
        },
        {
          "name": "_name",
          "type": "string"
        }
      ],
      "name": "createPuppy",
      "outputs": [],
      "payable": false,
      "stateMutability": "nonpayable",
      "type": "function"
    },
    {
      "constant": true,
      "inputs": [
        {
          "name": "_index",
          "type": "uint256"
        }
      ],
      "name": "getPuppy",
      "outputs": [
        {
          "name": "",
          "type": "string"
        }
      ],
      "payable": false,
      "stateMutability": "view",
      "type": "function"
    },
    {
      "inputs": [],
      "payable": false,
      "stateMutability": "nonpayable",
      "type": "constructor"
    },
    {
      "anonymous": false,
      "inputs": [
        {
          "indexed": false,
          "name": "genes",
          "type": "uint256"
        },
        {
          "indexed": false,
          "name": "name",
          "type": "string"
        }
      ],
      "name": "NewPuppy",
      "type": "event"
    }
  ],
  "bytecode": "0x606060405234156200001057600080fd5b60008054806001018281620000269190620000b8565b916000526020600020906002020160006040805190810160405280600081526020016040805190810160405280600d81526020017f47656e6572616c205075707079000000000000000000000000000000000000008152508152509091909150600082015181600001556020820151816001019080519060200190620000ae929190620000ed565b5050505062000224565b815481835581811511620000e857600202816002028360005260206000209182019101620000e7919062000174565b5b505050565b828054600181600116156101000203166002900490600052602060002090601f016020900481019282601f106200013057805160ff191683800117855562000161565b8280016001018555821562000161579182015b828111156200016057825182559160200191906001019062000143565b5b509050620001709190620001b0565b5090565b620001ad91905b80821115620001a9576000808201600090556001820160006200019f9190620001d8565b506002016200017b565b5090565b90565b620001d591905b80821115620001d1576000816000905550600101620001b7565b5090565b90565b50805460018160011615610100020316600290046000825580601f1062000200575062000221565b601f016020900490600052602060002090810190620002209190620001b0565b5b50565b610dfd80620002346000396000f3006060604052600436106100a4576000357c0100000000000000000000000000000000000000000000000000000000900463ffffffff1680630b3dc903146100a957806332882019146100d257806336385053146100fb57806379fcabaa1461018957806397054d9f146101df578063aebf749c1461020c578063b8326753146102cc578063c09e100414610303578063d045079d14610343578063f36c83f0146103a9575b600080fd5b34156100b457600080fd5b6100bc610445565b6040518082815260200191505060405180910390f35b34156100dd57600080fd5b6100e5610451565b6040518082815260200191505060405180910390f35b341561010657600080fd5b61010e610521565b6040518080602001828103825283818151815260200191508051906020019080838360005b8381101561014e578082015181840152602081019050610133565b50505050905090810190601f16801561017b5780820380516001836020036101000a031916815260200191505b509250505060405180910390f35b341561019457600080fd5b6101c9600480803573ffffffffffffffffffffffffffffffffffffffff16906020019091908035906020019091905050610690565b6040518082815260200191505060405180910390f35b34156101ea57600080fd5b6101f26106c1565b604051808215151515815260200191505060405180910390f35b341561021757600080fd5b61022d60048080359060200190919050506107b5565b60405180838152602001806020018281038252838181546001816001161561010002031660029004815260200191508054600181600116156101000203166002900480156102bc5780601f10610291576101008083540402835291602001916102bc565b820191906000526020600020905b81548152906001019060200180831161029f57829003601f168201915b5050935050505060405180910390f35b610301600480803573ffffffffffffffffffffffffffffffffffffffff169060200190919080359060200190919050506107e7565b005b610341600480803573ffffffffffffffffffffffffffffffffffffffff1690602001909190803590602001909190803590602001909190505061082b565b005b341561034e57600080fd5b6103a7600480803590602001909190803590602001908201803590602001908080601f016020809104026020016040519081016040528093929190818152602001838380828437820191505050505050919050506109a5565b005b34156103b457600080fd5b6103ca6004808035906020019091905050610b22565b6040518080602001828103825283818151815260200191508051906020019080838360005b8381101561040a5780820151818401526020810190506103ef565b50505050905090810190601f1680156104375780820380516001836020036101000a031916815260200191505b509250505060405180910390f35b60008080549050905090565b600080600160003373ffffffffffffffffffffffffffffffffffffffff1673ffffffffffffffffffffffffffffffffffffffff168152602001908152602001600020805490501115156104a357600080fd5b6000600160003373ffffffffffffffffffffffffffffffffffffffff1673ffffffffffffffffffffffffffffffffffffffff16815260200190815260200160002060008154811015156104f257fe5b90600052602060002090015481548110151561050a57fe5b906000526020600020906002020160000154905090565b610529610bea565b6000600160003373ffffffffffffffffffffffffffffffffffffffff1673ffffffffffffffffffffffffffffffffffffffff1681526020019081526020016000208054905011151561057a57600080fd5b6000600160003373ffffffffffffffffffffffffffffffffffffffff1673ffffffffffffffffffffffffffffffffffffffff16815260200190815260200160002060008154811015156105c957fe5b9060005260206000209001548154811015156105e157fe5b90600052602060002090600202016001018054600181600116156101000203166002900480601f0160208091040260200160405190810160405280929190818152602001828054600181600116156101000203166002900480156106865780601f1061065b57610100808354040283529160200191610686565b820191906000526020600020905b81548152906001019060200180831161066957829003601f168201915b5050505050905090565b6001602052816000526040600020818154811015156106ab57fe5b9060005260206000209001600091509150505481565b6000806000808054905014156106da57600091506107b1565b600160003373ffffffffffffffffffffffffffffffffffffffff1673ffffffffffffffffffffffffffffffffffffffff16815260200190815260200160002080549050905060008111151561073257600091506107b1565b600080600160003373ffffffffffffffffffffffffffffffffffffffff1673ffffffffffffffffffffffffffffffffffffffff168152602001908152602001600020600081548110151561078257fe5b90600052602060002090015481548110151561079a57fe5b906000526020600020906002020160000154141591505b5090565b6000818154811015156107c457fe5b906000526020600020906002020160009150905080600001549080600101905082565b8173ffffffffffffffffffffffffffffffffffffffff166108fc829081150290604051600060405180830381858888f19350505050151561082757600080fd5b5050565b61083583826107e7565b600160003373ffffffffffffffffffffffffffffffffffffffff1673ffffffffffffffffffffffffffffffffffffffff16815260200190815260200160002080548060010182816108869190610bfe565b91600052602060002090016000600160008773ffffffffffffffffffffffffffffffffffffffff1673ffffffffffffffffffffffffffffffffffffffff168152602001908152602001600020858154811015156108df57fe5b90600052602060002090015490919091505550600160008473ffffffffffffffffffffffffffffffffffffffff1673ffffffffffffffffffffffffffffffffffffffff1681526020019081526020016000208281548110151561093e57fe5b906000526020600020900160009055600160008473ffffffffffffffffffffffffffffffffffffffff1673ffffffffffffffffffffffffffffffffffffffff16815260200190815260200160002080548091906001900361099f9190610c2a565b50505050565b60006001600080548060010182816109bd9190610c56565b916000526020600020906002020160006040805190810160405280888152602001878152509091909150600082015181600001556020820151816001019080519060200190610a0d929190610c88565b505050039050600160003373ffffffffffffffffffffffffffffffffffffffff1673ffffffffffffffffffffffffffffffffffffffff1681526020019081526020016000208054806001018281610a649190610bfe565b9160005260206000209001600083909190915055507f12efae866618158fed3fb6aa7e51975d31550cbe43371a5214a7f0884db338a883836040518083815260200180602001828103825283818151815260200191508051906020019080838360005b83811015610ae2578082015181840152602081019050610ac7565b50505050905090810190601f168015610b0f5780820380516001836020036101000a031916815260200191505b50935050505060405180910390a1505050565b610b2a610bea565b600082815481101515610b3957fe5b90600052602060002090600202016001018054600181600116156101000203166002900480601f016020809104026020016040519081016040528092919081815260200182805460018160011615610100020316600290048015610bde5780601f10610bb357610100808354040283529160200191610bde565b820191906000526020600020905b815481529060010190602001808311610bc157829003601f168201915b50505050509050919050565b602060405190810160405280600081525090565b815481835581811511610c2557818360005260206000209182019101610c249190610d08565b5b505050565b815481835581811511610c5157818360005260206000209182019101610c509190610d08565b5b505050565b815481835581811511610c8357600202816002028360005260206000209182019101610c829190610d2d565b5b505050565b828054600181600116156101000203166002900490600052602060002090601f016020900481019282601f10610cc957805160ff1916838001178555610cf7565b82800160010185558215610cf7579182015b82811115610cf6578251825591602001919060010190610cdb565b5b509050610d049190610d64565b5090565b610d2a91905b80821115610d26576000816000905550600101610d0e565b5090565b90565b610d6191905b80821115610d5d57600080820160009055600182016000610d549190610d89565b50600201610d33565b5090565b90565b610d8691905b80821115610d82576000816000905550600101610d6a565b5090565b90565b50805460018160011615610100020316600290046000825580601f10610daf5750610dce565b601f016020900490600052602060002090810190610dcd9190610d64565b5b505600a165627a7a72305820f6244e352bf5468a6512f52070268e8ebb1631ad6b779f6870ace4ac3dfd557a0029",
  "source": "pragma solidity ^0.4.18;\n\ncontract CryptoPuppies {\n    struct Puppy {\n        uint genes;\n        string name;\n    }\n\n    Puppy[] public puppies;\n\n    mapping(address => int[]) public puppyIndexesByOwner;\n\n    event NewPuppy(uint genes, string name);\n\n    modifier onlyPuppyOwner() {\n        require(puppyIndexesByOwner[msg.sender].length > 0);\n        _;\n    }\n\n    function CryptoPuppies() public {\n        puppies.push(Puppy(0, 'General Puppy'));\n    }\n\n    function hasAnyPuppy() public view returns (bool) {\n        if (puppies.length == 0) {\n            return false;\n        }\n\n        uint puppyCount = puppyIndexesByOwner[msg.sender].length;\n        if (puppyCount <= 0) {\n            return false;\n        }\n\n        return puppies[uint(puppyIndexesByOwner[msg.sender][0])].genes != 0;\n    }\n\n    function getMyPuppyGenes() public view onlyPuppyOwner returns (uint) {\n        return puppies[uint(puppyIndexesByOwner[msg.sender][0])].genes;\n    }\n\n    function getMyPuppyName() public view onlyPuppyOwner returns (string) {\n        return puppies[uint(puppyIndexesByOwner[msg.sender][0])].name;\n    }\n\n    function getPuppiesCount() public view returns (uint) {\n        return puppies.length;\n    }\n\n    function getPuppy(uint _index) public view returns (string) {\n        return puppies[_index].name;\n    }\n\n    function createPuppy(uint _genes, string _name) public {\n        int index = int(puppies.push(Puppy(_genes, _name)) - 1);\n        puppyIndexesByOwner[msg.sender].push(index);\n        NewPuppy(_genes, _name);\n    }\n\n    function buyPuppy(address _from, uint _index, uint _price) public payable {\n        payEther(_from, _price);\n        puppyIndexesByOwner[msg.sender].push(puppyIndexesByOwner[_from][_index]);\n        delete(puppyIndexesByOwner[_from][_index]);\n        puppyIndexesByOwner[_from].length--;\n    }\n\n    function payEther(address _recipient, uint _amount) public payable {\n        _recipient.transfer(_amount);\n    }\n}\n",
  "sourcePath": "/Users/yuka.sato/Workspace/repositories/cryptopuppies/contracts/CryptoPuppies.sol",
  "compiler": {
    "name": "solc",
    "version": "0.4.18+commit.9cf6e910.Emscripten.clang"
  },
  "schemaVersion": "1.0.1",
  "updatedAt": "2018-03-10T06:43:48.721Z"
}