{
  "contractName": "CryptoPuppies",
  "abi": [
    {
      "constant": true,
      "inputs": [
        {
          "name": "",
          "type": "uint256"
        }
      ],
      "name": "puppies",
      "outputs": [
        {
          "name": "genes",
          "type": "uint256"
        },
        {
          "name": "name",
          "type": "string"
        }
      ],
      "payable": false,
      "stateMutability": "view",
      "type": "function"
    },
    {
      "constant": true,
      "inputs": [
        {
          "name": "",
          "type": "address"
        }
      ],
      "name": "puppyIndexesByOwner",
      "outputs": [
        {
          "name": "",
          "type": "int256"
        }
      ],
      "payable": false,
      "stateMutability": "view",
      "type": "function"
    },
    {
      "inputs": [],
      "payable": false,
      "stateMutability": "nonpayable",
      "type": "constructor"
    },
    {
      "anonymous": false,
      "inputs": [
        {
          "indexed": false,
          "name": "genes",
          "type": "uint256"
        },
        {
          "indexed": false,
          "name": "name",
          "type": "string"
        }
      ],
      "name": "NewPuppy",
      "type": "event"
    },
    {
      "constant": true,
      "inputs": [],
      "name": "hasAnyPuppy",
      "outputs": [
        {
          "name": "",
          "type": "bool"
        }
      ],
      "payable": false,
      "stateMutability": "view",
      "type": "function"
    },
    {
      "constant": true,
      "inputs": [],
      "name": "getMyPuppyGenes",
      "outputs": [
        {
          "name": "",
          "type": "uint256"
        }
      ],
      "payable": false,
      "stateMutability": "view",
      "type": "function"
    },
    {
      "constant": true,
      "inputs": [],
      "name": "getMyPuppyName",
      "outputs": [
        {
          "name": "",
          "type": "string"
        }
      ],
      "payable": false,
      "stateMutability": "view",
      "type": "function"
    },
    {
      "constant": true,
      "inputs": [],
      "name": "getPuppiesLength",
      "outputs": [
        {
          "name": "",
          "type": "uint256"
        }
      ],
      "payable": false,
      "stateMutability": "view",
      "type": "function"
    },
    {
      "constant": true,
      "inputs": [
        {
          "name": "_index",
          "type": "uint256"
        }
      ],
      "name": "getPuppy",
      "outputs": [
        {
          "name": "",
          "type": "string"
        }
      ],
      "payable": false,
      "stateMutability": "view",
      "type": "function"
    },
    {
      "constant": false,
      "inputs": [
        {
          "name": "_genes",
          "type": "uint256"
        },
        {
          "name": "_name",
          "type": "string"
        }
      ],
      "name": "createPuppy",
      "outputs": [],
      "payable": false,
      "stateMutability": "nonpayable",
      "type": "function"
    },
    {
      "constant": false,
      "inputs": [
        {
          "name": "_from",
          "type": "address"
        },
        {
          "name": "_price",
          "type": "uint256"
        }
      ],
      "name": "buyPuppy",
      "outputs": [],
      "payable": true,
      "stateMutability": "payable",
      "type": "function"
    },
    {
      "constant": false,
      "inputs": [
        {
          "name": "_recipient",
          "type": "address"
        },
        {
          "name": "_amount",
          "type": "uint256"
        }
      ],
      "name": "payEther",
      "outputs": [],
      "payable": true,
      "stateMutability": "payable",
      "type": "function"
    }
  ],
  "bytecode": "0x606060405234156200001057600080fd5b60008054806001018281620000269190620000b8565b916000526020600020906002020160006040805190810160405280600081526020016040805190810160405280600d81526020017f47656e6572616c205075707079000000000000000000000000000000000000008152508152509091909150600082015181600001556020820151816001019080519060200190620000ae929190620000ed565b5050505062000224565b815481835581811511620000e857600202816002028360005260206000209182019101620000e7919062000174565b5b505050565b828054600181600116156101000203166002900490600052602060002090601f016020900481019282601f106200013057805160ff191683800117855562000161565b8280016001018555821562000161579182015b828111156200016057825182559160200191906001019062000143565b5b509050620001709190620001b0565b5090565b620001ad91905b80821115620001a9576000808201600090556001820160006200019f9190620001d8565b506002016200017b565b5090565b90565b620001d591905b80821115620001d1576000816000905550600101620001b7565b5090565b90565b50805460018160011615610100020316600290046000825580601f1062000200575062000221565b601f016020900490600052602060002090810190620002209190620001b0565b5b50565b610c1b80620002346000396000f3006060604052600436106100a4576000357c0100000000000000000000000000000000000000000000000000000000900463ffffffff1680630d774089146100a957806332882019146100d257806336385053146100fb57806397054d9f14610189578063aebf749c146101b6578063b61a35d114610276578063b8326753146102c3578063c212cfff146102fa578063d045079d14610331578063f36c83f014610397575b600080fd5b34156100b457600080fd5b6100bc610433565b6040518082815260200191505060405180910390f35b34156100dd57600080fd5b6100e561043f565b6040518082815260200191505060405180910390f35b341561010657600080fd5b61010e6104f3565b6040518080602001828103825283818151815260200191508051906020019080838360005b8381101561014e578082015181840152602081019050610133565b50505050905090810190601f16801561017b5780820380516001836020036101000a031916815260200191505b509250505060405180910390f35b341561019457600080fd5b61019c610646565b604051808215151515815260200191505060405180910390f35b34156101c157600080fd5b6101d760048080359060200190919050506106df565b60405180838152602001806020018281038252838181546001816001161561010002031660029004815260200191508054600181600116156101000203166002900480156102665780601f1061023b57610100808354040283529160200191610266565b820191906000526020600020905b81548152906001019060200180831161024957829003601f168201915b5050935050505060405180910390f35b341561028157600080fd5b6102ad600480803573ffffffffffffffffffffffffffffffffffffffff16906020019091905050610711565b6040518082815260200191505060405180910390f35b6102f8600480803573ffffffffffffffffffffffffffffffffffffffff16906020019091908035906020019091905050610729565b005b61032f600480803573ffffffffffffffffffffffffffffffffffffffff1690602001909190803590602001909190505061076d565b005b341561033c57600080fd5b610395600480803590602001909190803590602001908201803590602001908080601f01602080910402602001604051908101604052809392919081815260200183838082843782019150505050505091905050610862565b005b34156103a257600080fd5b6103b860048080359060200190919050506109bd565b6040518080602001828103825283818151815260200191508051906020019080838360005b838110156103f85780820151818401526020810190506103dd565b50505050905090810190601f1680156104255780820380516001836020036101000a031916815260200191505b509250505060405180910390f35b60008080549050905090565b600080600160003373ffffffffffffffffffffffffffffffffffffffff1673ffffffffffffffffffffffffffffffffffffffff1681526020019081526020016000205413151561048e57600080fd5b6000600160003373ffffffffffffffffffffffffffffffffffffffff1673ffffffffffffffffffffffffffffffffffffffff168152602001908152602001600020548154811015156104dc57fe5b906000526020600020906002020160000154905090565b6104fb610a85565b6000600160003373ffffffffffffffffffffffffffffffffffffffff1673ffffffffffffffffffffffffffffffffffffffff1681526020019081526020016000205413151561054957600080fd5b6000600160003373ffffffffffffffffffffffffffffffffffffffff1673ffffffffffffffffffffffffffffffffffffffff1681526020019081526020016000205481548110151561059757fe5b90600052602060002090600202016001018054600181600116156101000203166002900480601f01602080910402602001604051908101604052809291908181526020018280546001816001161561010002031660029004801561063c5780601f106106115761010080835404028352916020019161063c565b820191906000526020600020905b81548152906001019060200180831161061f57829003601f168201915b5050505050905090565b60008060008080549050141561065f57600091506106db565b600160003373ffffffffffffffffffffffffffffffffffffffff1673ffffffffffffffffffffffffffffffffffffffff1681526020019081526020016000205490506000811315156106b457600091506106db565b600080828154811015156106c457fe5b906000526020600020906002020160000154141591505b5090565b6000818154811015156106ee57fe5b906000526020600020906002020160009150905080600001549080600101905082565b60016020528060005260406000206000915090505481565b8173ffffffffffffffffffffffffffffffffffffffff166108fc829081150290604051600060405180830381858888f19350505050151561076957600080fd5b5050565b6107778282610729565b600160008373ffffffffffffffffffffffffffffffffffffffff1673ffffffffffffffffffffffffffffffffffffffff16815260200190815260200160002054600160003373ffffffffffffffffffffffffffffffffffffffff1673ffffffffffffffffffffffffffffffffffffffff168152602001908152602001600020819055507fffffffffffffffffffffffffffffffffffffffffffffffffffffffffffffffff600160008473ffffffffffffffffffffffffffffffffffffffff1673ffffffffffffffffffffffffffffffffffffffff168152602001908152602001600020819055505050565b600060016000805480600101828161087a9190610a99565b9160005260206000209060020201600060408051908101604052808881526020018781525090919091506000820151816000015560208201518160010190805190602001906108ca929190610acb565b50505003905080600160003373ffffffffffffffffffffffffffffffffffffffff1673ffffffffffffffffffffffffffffffffffffffff168152602001908152602001600020819055507f12efae866618158fed3fb6aa7e51975d31550cbe43371a5214a7f0884db338a883836040518083815260200180602001828103825283818151815260200191508051906020019080838360005b8381101561097d578082015181840152602081019050610962565b50505050905090810190601f1680156109aa5780820380516001836020036101000a031916815260200191505b50935050505060405180910390a1505050565b6109c5610a85565b6000828154811015156109d457fe5b90600052602060002090600202016001018054600181600116156101000203166002900480601f016020809104026020016040519081016040528092919081815260200182805460018160011615610100020316600290048015610a795780601f10610a4e57610100808354040283529160200191610a79565b820191906000526020600020905b815481529060010190602001808311610a5c57829003601f168201915b50505050509050919050565b602060405190810160405280600081525090565b815481835581811511610ac657600202816002028360005260206000209182019101610ac59190610b4b565b5b505050565b828054600181600116156101000203166002900490600052602060002090601f016020900481019282601f10610b0c57805160ff1916838001178555610b3a565b82800160010185558215610b3a579182015b82811115610b39578251825591602001919060010190610b1e565b5b509050610b479190610b82565b5090565b610b7f91905b80821115610b7b57600080820160009055600182016000610b729190610ba7565b50600201610b51565b5090565b90565b610ba491905b80821115610ba0576000816000905550600101610b88565b5090565b90565b50805460018160011615610100020316600290046000825580601f10610bcd5750610bec565b601f016020900490600052602060002090810190610beb9190610b82565b5b505600a165627a7a7230582092129d98ee9ae71b6fe31a765526caae3c275e8167b321d4c4c171435c3b973b0029",
  "source": "pragma solidity ^0.4.18;\n\ncontract CryptoPuppies {\n    struct Puppy {\n        uint genes;\n        string name;\n    }\n\n    Puppy[] public puppies;\n\n    mapping(address => int) public puppyIndexesByOwner;\n\n    event NewPuppy(uint genes, string name);\n\n    modifier onlyPuppyOwner() {\n        require(puppyIndexesByOwner[msg.sender] > 0);\n        _;\n    }\n\n    function CryptoPuppies() public {\n        puppies.push(Puppy(0, 'General Puppy'));\n    }\n\n    function hasAnyPuppy() public view returns (bool) {\n        if (puppies.length == 0) {\n            return false;\n        }\n\n        int index = puppyIndexesByOwner[msg.sender];\n        if (index <= 0) {\n            return false;\n        }\n\n        return puppies[uint(index)].genes != 0;\n    }\n\n    function getMyPuppyGenes() public view onlyPuppyOwner returns (uint) {\n        return puppies[uint(puppyIndexesByOwner[msg.sender])].genes;\n    }\n\n    function getMyPuppyName() public view onlyPuppyOwner returns (string) {\n        return puppies[uint(puppyIndexesByOwner[msg.sender])].name;\n    }\n\n    function getPuppiesLength() public view returns (uint) {\n\t\treturn puppies.length;\n\t}\n\n    function getPuppy(uint _index) public view returns (string) {\n\n\t\t\treturn puppies[_index].name;\n\n\t}\n\n    function createPuppy(uint _genes, string _name) public {\n        int index = int(puppies.push(Puppy(_genes, _name)) - 1);\n        puppyIndexesByOwner[msg.sender] = index;\n        NewPuppy(_genes, _name);\n    }\n\n    function buyPuppy(address _from, uint _price) public payable {\n        payEther(_from, _price);\n        puppyIndexesByOwner[msg.sender] = puppyIndexesByOwner[_from];\n        puppyIndexesByOwner[_from] = -1;\n    }\n\n    function payEther(address _recipient, uint _amount) public payable {\n        _recipient.transfer(_amount);\n    }\n}\n",
  "sourcePath": "/Users/yuusukematsuoka/cryptopuppies/contracts/CryptoPuppies.sol",
  "compiler": {
    "name": "solc",
    "version": "0.4.19+commit.c4cbbb05.Emscripten.clang"
  },
  "schemaVersion": "2.0.0",
  "updatedAt": "2018-03-10T06:17:09.603Z"
}