{
  "contractName": "CryptoPuppies",
  "abi": [
    {
      "constant": false,
      "inputs": [
        {
          "name": "_owner",
          "type": "address"
        },
        {
          "name": "_genes",
          "type": "uint256"
        },
        {
          "name": "_name",
          "type": "string"
        }
      ],
      "name": "createPuppies",
      "outputs": [],
      "payable": false,
      "stateMutability": "nonpayable",
      "type": "function"
    },
    {
      "constant": true,
      "inputs": [
        {
          "name": "_number",
          "type": "uint256"
        }
      ],
      "name": "getPuppyOwner",
      "outputs": [
        {
          "name": "",
          "type": "address"
        }
      ],
      "payable": false,
      "stateMutability": "view",
      "type": "function"
    },
    {
      "constant": true,
      "inputs": [
        {
          "name": "",
          "type": "uint256"
        }
      ],
      "name": "puppies",
      "outputs": [
        {
          "name": "owner",
          "type": "address"
        },
        {
          "name": "genes",
          "type": "uint256"
        },
        {
          "name": "name",
          "type": "string"
        }
      ],
      "payable": false,
      "stateMutability": "view",
      "type": "function"
    },
    {
      "constant": true,
      "inputs": [
        {
          "name": "_number",
          "type": "uint256"
        }
      ],
      "name": "getPuppyName",
      "outputs": [
        {
          "name": "",
          "type": "string"
        }
      ],
      "payable": false,
      "stateMutability": "view",
      "type": "function"
    }
  ],
  "bytecode": "0x6060604052341561000f57600080fd5b6106d58061001e6000396000f300606060405260043610610062576000357c0100000000000000000000000000000000000000000000000000000000900463ffffffff1680635e885b6e146100675780638ae57cb1146100ec578063aebf749c1461014f578063b008aa2614610242575b600080fd5b341561007257600080fd5b6100ea600480803573ffffffffffffffffffffffffffffffffffffffff1690602001909190803590602001909190803590602001908201803590602001908080601f016020809104026020016040519081016040528093929190818152602001838380828437820191505050505050919050506102de565b005b34156100f757600080fd5b61010d60048080359060200190919050506103af565b604051808273ffffffffffffffffffffffffffffffffffffffff1673ffffffffffffffffffffffffffffffffffffffff16815260200191505060405180910390f35b341561015a57600080fd5b61017060048080359060200190919050506103f8565b604051808473ffffffffffffffffffffffffffffffffffffffff1673ffffffffffffffffffffffffffffffffffffffff168152602001838152602001806020018281038252838181546001816001161561010002031660029004815260200191508054600181600116156101000203166002900480156102315780601f1061020657610100808354040283529160200191610231565b820191906000526020600020905b81548152906001019060200180831161021457829003601f168201915b505094505050505060405180910390f35b341561024d57600080fd5b6102636004808035906020019091905050610450565b6040518080602001828103825283818151815260200191508051906020019080838360005b838110156102a3578082015181840152602081019050610288565b50505050905090810190601f1680156102d05780820380516001836020036101000a031916815260200191505b509250505060405180910390f35b600080548060010182816102f29190610518565b916000526020600020906003020160006060604051908101604052808773ffffffffffffffffffffffffffffffffffffffff16815260200186815260200185815250909190915060008201518160000160006101000a81548173ffffffffffffffffffffffffffffffffffffffff021916908373ffffffffffffffffffffffffffffffffffffffff1602179055506020820151816001015560408201518160020190805190602001906103a692919061054a565b50505050505050565b600080828154811015156103bf57fe5b906000526020600020906003020160000160009054906101000a900473ffffffffffffffffffffffffffffffffffffffff169050919050565b60008181548110151561040757fe5b90600052602060002090600302016000915090508060000160009054906101000a900473ffffffffffffffffffffffffffffffffffffffff169080600101549080600201905083565b6104586105ca565b60008281548110151561046757fe5b90600052602060002090600302016002018054600181600116156101000203166002900480601f01602080910402602001604051908101604052809291908181526020018280546001816001161561010002031660029004801561050c5780601f106104e15761010080835404028352916020019161050c565b820191906000526020600020905b8154815290600101906020018083116104ef57829003601f168201915b50505050509050919050565b8154818355818115116105455760030281600302836000526020600020918201910161054491906105de565b5b505050565b828054600181600116156101000203166002900490600052602060002090601f016020900481019282601f1061058b57805160ff19168380011785556105b9565b828001600101855582156105b9579182015b828111156105b857825182559160200191906001019061059d565b5b5090506105c6919061063c565b5090565b602060405190810160405280600081525090565b61063991905b8082111561063557600080820160006101000a81549073ffffffffffffffffffffffffffffffffffffffff0219169055600182016000905560028201600061062c9190610661565b506003016105e4565b5090565b90565b61065e91905b8082111561065a576000816000905550600101610642565b5090565b90565b50805460018160011615610100020316600290046000825580601f1061068757506106a6565b601f0160209004906000526020600020908101906106a5919061063c565b5b505600a165627a7a72305820b9515eabdafcf6a1e8f25b28abf2c4c972d7a2960a03779748ffe4eece6d43b20029",
  "source": "pragma solidity ^0.4.18;\n\ncontract CryptoPuppies {\n  struct Puppy {\n    address owner;\n    uint genes;\n    string name;\n  }\n\n  Puppy[] public puppies;\n\n  function getPuppyName(uint _number) public view returns (string) {\n    return puppies[_number].name;\n  }\n\n  function getPuppyOwner(uint _number) public view returns (address) {\n    return puppies[_number].owner;\n  }\n\n  function createPuppies(address _owner, uint _genes, string _name) public {\n    puppies.push(Puppy(_owner, _genes, _name));\n  }\n\n}\n",
  "sourcePath": "/Users/hamakihito/cryptopuppies/cryptopuppies/contracts/CryptoPuppies.sol",
  "compiler": {
    "name": "solc",
    "version": "0.4.18+commit.9cf6e910.Emscripten.clang"
  },
  "schemaVersion": "1.0.1",
  "updatedAt": "2018-01-27T05:37:55.688Z"
}