{
  "contractName": "CryptoPuppies",
  "abi": [
    {
      "constant": true,
      "inputs": [],
      "name": "richest",
      "outputs": [
        {
          "name": "",
          "type": "address"
        }
      ],
      "payable": false,
      "stateMutability": "view",
      "type": "function"
    },
    {
      "constant": true,
      "inputs": [],
      "name": "getMyPuppyGenes",
      "outputs": [
        {
          "name": "",
          "type": "uint256"
        }
      ],
      "payable": false,
      "stateMutability": "view",
      "type": "function"
    },
    {
      "constant": true,
      "inputs": [],
      "name": "getMyPuppyName",
      "outputs": [
        {
          "name": "",
          "type": "string"
        }
      ],
      "payable": false,
      "stateMutability": "view",
      "type": "function"
    },
    {
      "constant": false,
      "inputs": [],
      "name": "withdraw",
      "outputs": [
        {
          "name": "",
          "type": "uint256"
        }
      ],
      "payable": true,
      "stateMutability": "payable",
      "type": "function"
    },
    {
      "constant": true,
      "inputs": [],
      "name": "mostSent",
      "outputs": [
        {
          "name": "",
          "type": "uint256"
        }
      ],
      "payable": false,
      "stateMutability": "view",
      "type": "function"
    },
    {
      "constant": true,
      "inputs": [
        {
          "name": "",
          "type": "uint256"
        }
      ],
      "name": "puppies",
      "outputs": [
        {
          "name": "genes",
          "type": "uint256"
        },
        {
          "name": "name",
          "type": "string"
        }
      ],
      "payable": false,
      "stateMutability": "view",
      "type": "function"
    },
    {
      "constant": true,
      "inputs": [
        {
          "name": "",
          "type": "address"
        }
      ],
      "name": "puppyIndexesByOwner",
      "outputs": [
        {
          "name": "",
          "type": "uint256"
        }
      ],
      "payable": false,
      "stateMutability": "view",
      "type": "function"
    },
    {
      "constant": false,
      "inputs": [],
      "name": "buyPuppy",
      "outputs": [
        {
          "name": "",
          "type": "bool"
        }
      ],
      "payable": true,
      "stateMutability": "payable",
      "type": "function"
    },
    {
      "constant": false,
      "inputs": [
        {
          "name": "_genes",
          "type": "uint256"
        },
        {
          "name": "_name",
          "type": "string"
        }
      ],
      "name": "createPuppy",
      "outputs": [],
      "payable": false,
      "stateMutability": "nonpayable",
      "type": "function"
    },
    {
      "inputs": [],
      "payable": true,
      "stateMutability": "payable",
      "type": "constructor"
    },
    {
      "anonymous": false,
      "inputs": [
        {
          "indexed": false,
          "name": "genes",
          "type": "uint256"
        },
        {
          "indexed": false,
          "name": "name",
          "type": "string"
        }
      ],
      "name": "NewPuppy",
      "type": "event"
    }
  ],
  "bytecode": "0x606060405233600360006101000a81548173ffffffffffffffffffffffffffffffffffffffff021916908373ffffffffffffffffffffffffffffffffffffffff160217905550600a6002819055506109c08061005c6000396000f300606060405260043610610099576000357c0100000000000000000000000000000000000000000000000000000000900463ffffffff16806302e26c381461009e57806332882019146100f3578063363850531461011c5780633ccfd60b146101aa5780636886bf1c146101c8578063aebf749c146101f1578063b61a35d1146102b1578063b6202300146102fe578063d045079d14610320575b600080fd5b34156100a957600080fd5b6100b1610386565b604051808273ffffffffffffffffffffffffffffffffffffffff1673ffffffffffffffffffffffffffffffffffffffff16815260200191505060405180910390f35b34156100fe57600080fd5b6101066103ac565b6040518082815260200191505060405180910390f35b341561012757600080fd5b61012f610412565b6040518080602001828103825283818151815260200191508051906020019080838360005b8381101561016f578082015181840152602081019050610154565b50505050905090810190601f16801561019c5780820380516001836020036101000a031916815260200191505b509250505060405180910390f35b6101b2610517565b6040518082815260200191505060405180910390f35b34156101d357600080fd5b6101db6105a8565b6040518082815260200191505060405180910390f35b34156101fc57600080fd5b61021260048080359060200190919050506105ae565b60405180838152602001806020018281038252838181546001816001161561010002031660029004815260200191508054600181600116156101000203166002900480156102a15780601f10610276576101008083540402835291602001916102a1565b820191906000526020600020905b81548152906001019060200180831161028457829003601f168201915b5050935050505060405180910390f35b34156102bc57600080fd5b6102e8600480803573ffffffffffffffffffffffffffffffffffffffff169060200190919050506105e0565b6040518082815260200191505060405180910390f35b6103066105f8565b604051808215151515815260200191505060405180910390f35b341561032b57600080fd5b610384600480803590602001909190803590602001908201803590602001908080601f016020809104026020016040519081016040528093929190818152602001838380828437820191505050505050919050506106cf565b005b600360009054906101000a900473ffffffffffffffffffffffffffffffffffffffff1681565b600080600160003373ffffffffffffffffffffffffffffffffffffffff1673ffffffffffffffffffffffffffffffffffffffff168152602001908152602001600020548154811015156103fb57fe5b906000526020600020906002020160000154905090565b61041a61082a565b6000600160003373ffffffffffffffffffffffffffffffffffffffff1673ffffffffffffffffffffffffffffffffffffffff1681526020019081526020016000205481548110151561046857fe5b90600052602060002090600202016001018054600181600116156101000203166002900480601f01602080910402602001604051908101604052809291908181526020018280546001816001161561010002031660029004801561050d5780601f106104e25761010080835404028352916020019161050d565b820191906000526020600020905b8154815290600101906020018083116104f057829003601f168201915b5050505050905090565b600080600460003373ffffffffffffffffffffffffffffffffffffffff1673ffffffffffffffffffffffffffffffffffffffff1681526020019081526020016000205490506000600460003373ffffffffffffffffffffffffffffffffffffffff1673ffffffffffffffffffffffffffffffffffffffff168152602001908152602001600020819055508091505090565b60025481565b6000818154811015156105bd57fe5b906000526020600020906002020160009150905080600001549080600101905082565b60016020528060005260406000206000915090505481565b6000600254606411156106c757606460046000600360009054906101000a900473ffffffffffffffffffffffffffffffffffffffff1673ffffffffffffffffffffffffffffffffffffffff1673ffffffffffffffffffffffffffffffffffffffff1681526020019081526020016000206000828254019250508190555033600360006101000a81548173ffffffffffffffffffffffffffffffffffffffff021916908373ffffffffffffffffffffffffffffffffffffffff1602179055506064600281905550600190506106cc565b600090505b90565b60006001600080548060010182816106e7919061083e565b916000526020600020906002020160006040805190810160405280888152602001878152509091909150600082015181600001556020820151816001019080519060200190610737929190610870565b50505003905080600160003373ffffffffffffffffffffffffffffffffffffffff1673ffffffffffffffffffffffffffffffffffffffff168152602001908152602001600020819055507f12efae866618158fed3fb6aa7e51975d31550cbe43371a5214a7f0884db338a883836040518083815260200180602001828103825283818151815260200191508051906020019080838360005b838110156107ea5780820151818401526020810190506107cf565b50505050905090810190601f1680156108175780820380516001836020036101000a031916815260200191505b50935050505060405180910390a1505050565b602060405190810160405280600081525090565b81548183558181151161086b5760020281600202836000526020600020918201910161086a91906108f0565b5b505050565b828054600181600116156101000203166002900490600052602060002090601f016020900481019282601f106108b157805160ff19168380011785556108df565b828001600101855582156108df579182015b828111156108de5782518255916020019190600101906108c3565b5b5090506108ec9190610927565b5090565b61092491905b8082111561092057600080820160009055600182016000610917919061094c565b506002016108f6565b5090565b90565b61094991905b8082111561094557600081600090555060010161092d565b5090565b90565b50805460018160011615610100020316600290046000825580601f106109725750610991565b601f0160209004906000526020600020908101906109909190610927565b5b505600a165627a7a72305820899f08390dc0480fca67fefc5c727f4662489bcfb9957ac596775252abfc9d0f0029",
  "source": "pragma solidity ^0.4.18;\n\ncontract CryptoPuppies {\n  struct Puppy {\n    uint genes;\n    string name;\n  }\n\n  Puppy[] public puppies;\n\n  mapping (address => uint) public puppyIndexesByOwner;\n\n  uint public mostSent;\n  address public richest;\n\n  mapping (address => uint) pendingWithdrawals;\n\n  event NewPuppy(uint genes, string name);\n\n  function CryptoPuppies() public payable {\n    richest = msg.sender;\n    mostSent = 10;\n  }\n\n  function getMyPuppyGenes() public view returns (uint) {\n    return puppies[puppyIndexesByOwner[msg.sender]].genes;\n  }\n\n  function getMyPuppyName() public view returns (string) {\n    return puppies[puppyIndexesByOwner[msg.sender]].name;\n  }\n\n  function createPuppy(uint _genes, string _name) public {\n    uint index = puppies.push(Puppy(_genes, _name)) - 1;\n    puppyIndexesByOwner[msg.sender] = index;\n    NewPuppy(_genes, _name);\n  }\n\n  function buyPuppy() public payable returns (bool) {\n    if (100 > mostSent) {\n      pendingWithdrawals[richest] += 100;\n      richest = msg.sender;\n      mostSent = 100;\n      return true;\n    } else {\n      return false;\n    }\n  }\n\n  function withdraw() public payable returns (uint) {\n    uint amount = pendingWithdrawals[msg.sender];\n    pendingWithdrawals[msg.sender] = 0;\n    return amount;\n    // msg.sender.transfer(amount);\n  }\n}\n",
  "sourcePath": "/Users/yuka.sato/Workspace/repositories/cryptopuppies/contracts/CryptoPuppies.sol",
  "compiler": {
    "name": "solc",
    "version": "0.4.18+commit.9cf6e910.Emscripten.clang"
  },
  "schemaVersion": "1.0.1",
  "updatedAt": "2018-02-10T05:45:21.193Z"
}