{
  "contractName": "CryptoPuppies",
  "abi": [
    {
      "constant": true,
      "inputs": [],
      "name": "getMyPuppyGenes",
      "outputs": [
        {
          "name": "",
          "type": "uint256"
        }
      ],
      "payable": false,
      "stateMutability": "view",
      "type": "function"
    },
    {
      "constant": true,
      "inputs": [],
      "name": "getMyPuppyName",
      "outputs": [
        {
          "name": "",
          "type": "string"
        }
      ],
      "payable": false,
      "stateMutability": "view",
      "type": "function"
    },
    {
      "constant": true,
      "inputs": [],
      "name": "hasAnyPuppy",
      "outputs": [
        {
          "name": "",
          "type": "bool"
        }
      ],
      "payable": false,
      "stateMutability": "pure",
      "type": "function"
    },
    {
      "constant": true,
      "inputs": [
        {
          "name": "",
          "type": "uint256"
        }
      ],
      "name": "puppies",
      "outputs": [
        {
          "name": "genes",
          "type": "uint256"
        },
        {
          "name": "name",
          "type": "string"
        }
      ],
      "payable": false,
      "stateMutability": "view",
      "type": "function"
    },
    {
      "constant": true,
      "inputs": [
        {
          "name": "",
          "type": "address"
        }
      ],
      "name": "puppyIndexesByOwner",
      "outputs": [
        {
          "name": "",
          "type": "uint256"
        }
      ],
      "payable": false,
      "stateMutability": "view",
      "type": "function"
    },
    {
      "constant": false,
      "inputs": [
        {
          "name": "_recipient",
          "type": "address"
        },
        {
          "name": "_amount",
          "type": "uint256"
        }
      ],
      "name": "payEther",
      "outputs": [],
      "payable": true,
      "stateMutability": "payable",
      "type": "function"
    },
    {
      "constant": false,
      "inputs": [
        {
          "name": "_genes",
          "type": "uint256"
        },
        {
          "name": "_name",
          "type": "string"
        }
      ],
      "name": "createPuppy",
      "outputs": [],
      "payable": false,
      "stateMutability": "nonpayable",
      "type": "function"
    },
    {
      "anonymous": false,
      "inputs": [
        {
          "indexed": false,
          "name": "genes",
          "type": "uint256"
        },
        {
          "indexed": false,
          "name": "name",
          "type": "string"
        }
      ],
      "name": "NewPuppy",
      "type": "event"
    }
  ],
  "bytecode": "0x6060604052341561000f57600080fd5b6108088061001e6000396000f300606060405260043610610083576000357c0100000000000000000000000000000000000000000000000000000000900463ffffffff168063328820191461008857806336385053146100b157806397054d9f1461013f578063aebf749c1461016c578063b61a35d11461022c578063b832675314610279578063d045079d146102b0575b600080fd5b341561009357600080fd5b61009b610316565b6040518082815260200191505060405180910390f35b34156100bc57600080fd5b6100c461037c565b6040518080602001828103825283818151815260200191508051906020019080838360005b838110156101045780820151818401526020810190506100e9565b50505050905090810190601f1680156101315780820380516001836020036101000a031916815260200191505b509250505060405180910390f35b341561014a57600080fd5b610152610481565b604051808215151515815260200191505060405180910390f35b341561017757600080fd5b61018d6004808035906020019091905050610489565b604051808381526020018060200182810382528381815460018160011615610100020316600290048152602001915080546001816001161561010002031660029004801561021c5780601f106101f15761010080835404028352916020019161021c565b820191906000526020600020905b8154815290600101906020018083116101ff57829003601f168201915b5050935050505060405180910390f35b341561023757600080fd5b610263600480803573ffffffffffffffffffffffffffffffffffffffff169060200190919050506104bb565b6040518082815260200191505060405180910390f35b6102ae600480803573ffffffffffffffffffffffffffffffffffffffff169060200190919080359060200190919050506104d3565b005b34156102bb57600080fd5b610314600480803590602001909190803590602001908201803590602001908080601f01602080910402602001604051908101604052809392919081815260200183838082843782019150505050505091905050610517565b005b600080600160003373ffffffffffffffffffffffffffffffffffffffff1673ffffffffffffffffffffffffffffffffffffffff1681526020019081526020016000205481548110151561036557fe5b906000526020600020906002020160000154905090565b610384610672565b6000600160003373ffffffffffffffffffffffffffffffffffffffff1673ffffffffffffffffffffffffffffffffffffffff168152602001908152602001600020548154811015156103d257fe5b90600052602060002090600202016001018054600181600116156101000203166002900480601f0160208091040260200160405190810160405280929190818152602001828054600181600116156101000203166002900480156104775780601f1061044c57610100808354040283529160200191610477565b820191906000526020600020905b81548152906001019060200180831161045a57829003601f168201915b5050505050905090565b600080905090565b60008181548110151561049857fe5b906000526020600020906002020160009150905080600001549080600101905082565b60016020528060005260406000206000915090505481565b8173ffffffffffffffffffffffffffffffffffffffff166108fc829081150290604051600060405180830381858888f19350505050151561051357600080fd5b5050565b600060016000805480600101828161052f9190610686565b91600052602060002090600202016000604080519081016040528088815260200187815250909190915060008201518160000155602082015181600101908051906020019061057f9291906106b8565b50505003905080600160003373ffffffffffffffffffffffffffffffffffffffff1673ffffffffffffffffffffffffffffffffffffffff168152602001908152602001600020819055507f12efae866618158fed3fb6aa7e51975d31550cbe43371a5214a7f0884db338a883836040518083815260200180602001828103825283818151815260200191508051906020019080838360005b83811015610632578082015181840152602081019050610617565b50505050905090810190601f16801561065f5780820380516001836020036101000a031916815260200191505b50935050505060405180910390a1505050565b602060405190810160405280600081525090565b8154818355818115116106b3576002028160020283600052602060002091820191016106b29190610738565b5b505050565b828054600181600116156101000203166002900490600052602060002090601f016020900481019282601f106106f957805160ff1916838001178555610727565b82800160010185558215610727579182015b8281111561072657825182559160200191906001019061070b565b5b509050610734919061076f565b5090565b61076c91905b808211156107685760008082016000905560018201600061075f9190610794565b5060020161073e565b5090565b90565b61079191905b8082111561078d576000816000905550600101610775565b5090565b90565b50805460018160011615610100020316600290046000825580601f106107ba57506107d9565b601f0160209004906000526020600020908101906107d8919061076f565b5b505600a165627a7a72305820f65de7c89ef3bb7945700457300d7b320661eb6a154968c00786059b7ef1516d0029",
  "source": "pragma solidity ^0.4.18;\n\ncontract CryptoPuppies {\n  struct Puppy {\n    uint genes;\n    string name;\n  }\n\n  Puppy[] public puppies;\n\n  mapping (address => uint) public puppyIndexesByOwner;\n\n  event NewPuppy(uint genes, string name);\n\n  function hasAnyPuppy() public pure returns (bool) {\n    // return puppies[puppyIndexesByOwner[msg.sender]].genes != 0;\n    return false;\n  }\n\n  function getMyPuppyGenes() public view returns (uint) {\n    return puppies[puppyIndexesByOwner[msg.sender]].genes;\n  }\n\n  function getMyPuppyName() public view returns (string) {\n    return puppies[puppyIndexesByOwner[msg.sender]].name;\n  }\n\n  function createPuppy(uint _genes, string _name) public {\n    uint index = puppies.push(Puppy(_genes, _name)) - 1;\n    puppyIndexesByOwner[msg.sender] = index;\n    NewPuppy(_genes, _name);\n  }\n\n  function payEther(address _recipient, uint _amount) public payable {\n    _recipient.transfer(_amount);\n  }\n}\n",
  "sourcePath": "/Users/yuka.sato/Workspace/repositories/cryptopuppies/contracts/CryptoPuppies.sol",
  "compiler": {
    "name": "solc",
    "version": "0.4.18+commit.9cf6e910.Emscripten.clang"
  },
  "schemaVersion": "1.0.1",
  "updatedAt": "2018-02-24T02:27:54.904Z"
}